{
  "address": "0x254dffcd3277C0b1660F6d42EFbB754edaBAbC2B",
  "abi": [
    {
      "inputs": [],
      "stateMutability": "nonpayable",
      "type": "constructor"
    },
    {
      "anonymous": false,
      "inputs": [
        {
          "indexed": true,
          "internalType": "address",
          "name": "previousOwner",
          "type": "address"
        },
        {
          "indexed": true,
          "internalType": "address",
          "name": "newOwner",
          "type": "address"
        }
      ],
      "name": "OwnershipTransferred",
      "type": "event"
    },
    {
      "anonymous": false,
      "inputs": [
        {
          "indexed": true,
          "internalType": "address",
          "name": "splitter",
          "type": "address"
        },
        {
          "indexed": false,
          "internalType": "string",
          "name": "name",
          "type": "string"
        },
        {
          "indexed": false,
          "internalType": "address[]",
          "name": "recipients",
          "type": "address[]"
        },
        {
          "indexed": false,
          "internalType": "uint256[]",
          "name": "amounts",
          "type": "uint256[]"
        }
      ],
      "name": "SplitterCreated",
      "type": "event"
    },
    {
      "inputs": [
        {
          "internalType": "string",
          "name": "name_",
          "type": "string"
        },
        {
          "internalType": "bytes32",
          "name": "merkleRoot",
          "type": "bytes32"
        },
        {
          "internalType": "address[]",
          "name": "recipients",
          "type": "address[]"
        },
        {
          "internalType": "uint256[]",
          "name": "amounts",
          "type": "uint256[]"
        }
      ],
      "name": "createSplitter",
      "outputs": [
        {
          "internalType": "address",
          "name": "newContract",
          "type": "address"
        }
      ],
      "stateMutability": "payable",
      "type": "function"
    },
    {
      "inputs": [],
      "name": "getSplitterImplementation",
      "outputs": [
        {
          "internalType": "address",
          "name": "",
          "type": "address"
        }
      ],
      "stateMutability": "view",
      "type": "function"
    },
    {
      "inputs": [
        {
          "internalType": "address",
          "name": "splitterImplementation",
          "type": "address"
        },
        {
          "internalType": "address",
          "name": "owner_",
          "type": "address"
        }
      ],
      "name": "initialize",
      "outputs": [],
      "stateMutability": "nonpayable",
      "type": "function"
    },
    {
      "inputs": [],
      "name": "owner",
      "outputs": [
        {
          "internalType": "address",
          "name": "",
          "type": "address"
        }
      ],
      "stateMutability": "view",
      "type": "function"
    },
    {
      "inputs": [],
      "name": "renounceOwnership",
      "outputs": [],
      "stateMutability": "nonpayable",
      "type": "function"
    },
    {
      "inputs": [
        {
          "internalType": "address",
          "name": "implementation",
          "type": "address"
        }
      ],
      "name": "setSplitterImplementation",
      "outputs": [],
      "stateMutability": "nonpayable",
      "type": "function"
    },
    {
      "inputs": [
        {
          "internalType": "address",
          "name": "newOwner",
          "type": "address"
        }
      ],
      "name": "transferOwnership",
      "outputs": [],
      "stateMutability": "nonpayable",
      "type": "function"
    }
  ],
  "transactionHash": "0x62e21062ea23bec48c7dbde3ba741c1d59d2248cb437e9acff88752d268d6ff1",
  "args": [],
  "solcInputHash": "aa5248424eff8400a14d00e1c1b4aaf5",
  "bytecode": "0x608060405234801561001057600080fd5b50610a0a806100206000396000f3fe6080604052600436106100705760003560e01c80638da5cb5b1161004e5780638da5cb5b146100d5578063d76061c8146100ea578063dae299061461010a578063f2fde38b1461011f57610070565b80632a8eee7714610075578063485cc9551461009e578063715018a6146100c0575b600080fd5b610088610083366004610634565b61013f565b6040516100959190610783565b60405180910390f35b3480156100aa57600080fd5b506100be6100b9366004610602565b610257565b005b3480156100cc57600080fd5b506100be6102ef565b3480156100e157600080fd5b5061008861033a565b3480156100f657600080fd5b506100be6101053660046105e1565b610349565b34801561011657600080fd5b50610088610394565b34801561012b57600080fd5b506100be61013a3660046105e1565b6103a3565b6065546000906001600160a01b03166101735760405162461bcd60e51b815260040161016a90610943565b60405180910390fd5b81518351146101945760405162461bcd60e51b815260040161016a90610865565b6065546101a9906001600160a01b0316610411565b604051639498bd7160e01b81529091506001600160a01b03821690639498bd71906101d8908790600401610797565b600060405180830381600087803b1580156101f257600080fd5b505af1158015610206573d6000803e3d6000fd5b50505050806001600160a01b03167f1abfe31ad300b4944aba025be8e3da75652af4e833a11c0d86d6634a2b33c475868585604051610247939291906107a0565b60405180910390a2949350505050565b600054610100900460ff1680610270575060005460ff16155b61028c5760405162461bcd60e51b815260040161016a906108c0565b600054610100900460ff161580156102b7576000805460ff1961ff0019909116610100171660011790555b6102c083610485565b6001600160a01b038216156102d8576102d8826103a3565b80156102ea576000805461ff00191690555b505050565b6102f76104a7565b6001600160a01b031661030861033a565b6001600160a01b03161461032e5760405162461bcd60e51b815260040161016a9061090e565b61033860006104ab565b565b6033546001600160a01b031690565b6103516104a7565b6001600160a01b031661036261033a565b6001600160a01b0316146103885760405162461bcd60e51b815260040161016a9061090e565b61039181610485565b50565b6065546001600160a01b031690565b6103ab6104a7565b6001600160a01b03166103bc61033a565b6001600160a01b0316146103e25760405162461bcd60e51b815260040161016a9061090e565b6001600160a01b0381166104085760405162461bcd60e51b815260040161016a9061081f565b610391816104ab565b6000604051733d602d80600a3d3981f3363d3d373d3d3d363d7360601b81528260601b60148201526e5af43d82803e903d91602b57fd5bf360881b60288201526037816000f09150506001600160a01b0381166104805760405162461bcd60e51b815260040161016a90610890565b919050565b606580546001600160a01b0319166001600160a01b0392909216919091179055565b3390565b603380546001600160a01b038381166001600160a01b0319831681179093556040519116919082907f8be0079c531659141344cd1fd0a4f28419497f9722a3daafe3b4186f6b6457e090600090a35050565b80356001600160a01b038116811461048057600080fd5b600082601f830112610524578081fd5b813560206105396105348361099a565b610970565b8281528181019085830183850287018401881015610555578586fd5b855b8581101561057a57610568826104fd565b84529284019290840190600101610557565b5090979650505050505050565b600082601f830112610597578081fd5b813560206105a76105348361099a565b82815281810190858301838502870184018810156105c3578586fd5b855b8581101561057a578135845292840192908401906001016105c5565b6000602082840312156105f2578081fd5b6105fb826104fd565b9392505050565b60008060408385031215610614578081fd5b61061d836104fd565b915061062b602084016104fd565b90509250929050565b60008060008060808587031215610649578182fd5b843567ffffffffffffffff80821115610660578384fd5b818701915087601f830112610673578384fd5b8135602082821115610687576106876109be565b610699601f8301601f19168201610970565b8281528a828487010111156106ac578687fd5b82828601838301379182018101869052909650870135945060408701359150808211156106d7578384fd5b6106e388838901610514565b935060608701359150808211156106f8578283fd5b5061070587828801610587565b91505092959194509250565b6000815180845260208085019450808401835b838110156107495781516001600160a01b031687529582019590820190600101610724565b509495945050505050565b6000815180845260208085019450808401835b8381101561074957815187529582019590820190600101610767565b6001600160a01b0391909116815260200190565b90815260200190565b6000606082528451806060840152815b818110156107cd57602081880181015160808684010152016107b0565b818111156107de5782608083860101525b50601f01601f191682018281036080908101602085015261080190820186610711565b905082810360408401526108158185610754565b9695505050505050565b60208082526026908201527f4f776e61626c653a206e6577206f776e657220697320746865207a65726f206160408201526564647265737360d01b606082015260800190565b602080825260119082015270214c454e4754485f4d49534d415443482160781b604082015260600190565b602080825260169082015275115490cc4c4d8dce8818dc99585d194819985a5b195960521b604082015260600190565b6020808252602e908201527f496e697469616c697a61626c653a20636f6e747261637420697320616c72656160408201526d191e481a5b9a5d1a585b1a5e995960921b606082015260800190565b6020808252818101527f4f776e61626c653a2063616c6c6572206973206e6f7420746865206f776e6572604082015260600190565b602080825260139082015272214e4f5f494d504c454d454e544154494f4e2160681b604082015260600190565b60405181810167ffffffffffffffff81118282101715610992576109926109be565b604052919050565b600067ffffffffffffffff8211156109b4576109b46109be565b5060209081020190565b634e487b7160e01b600052604160045260246000fdfea2646970667358221220da9e8cd7c6ffb98fc2edbc5f45f75edfc44cca33c0b7dacb29a91bd2cb6f45d664736f6c63430008000033",
  "devdoc": {
    "author": "Simon Fremaux (@dievardump)",
    "kind": "dev",
    "methods": {
      "createSplitter(string,bytes32,address[],uint256[])": {
        "details": "the contract created is a minimal proxy to the _splitterImplementation      the list of recipients (and the corresponding amounts) should then be used in the exact same order      to create the merkleProof and merkleRoot",
        "params": {
          "amounts": "list of amounts",
          "merkleRoot": "merkle root of the tree of recipients",
          "name_": "name of the Splitter (for convenience)",
          "recipients": "list of recipients"
        },
        "returns": {
          "newContract": "the address of the new contract"
        }
      },
      "owner()": {
        "details": "Returns the address of the current owner."
      },
      "renounceOwnership()": {
        "details": "Leaves the contract without owner. It will not be possible to call `onlyOwner` functions anymore. Can only be called by the current owner. NOTE: Renouncing ownership will leave the contract without an owner, thereby removing any functionality that is only available to the owner."
      },
      "setSplitterImplementation(address)": {
        "params": {
          "implementation": "the address to proxy calls to"
        }
      },
      "transferOwnership(address)": {
        "details": "Transfers ownership of the contract to a new account (`newOwner`). Can only be called by the current owner."
      }
    },
    "title": "CollabSplitterFactory",
    "version": 1
  },
  "userdoc": {
    "kind": "user",
    "methods": {
      "createSplitter(string,bytes32,address[],uint256[])": {
        "notice": "Creates a new CollabSplitter contract"
      },
      "getSplitterImplementation()": {
        "notice": "Getter for the Splitter Implementation"
      },
      "setSplitterImplementation(address)": {
        "notice": "Setter for the Splitter Implementation"
      }
    },
    "notice": "This contract allows people to create a \"Splitter\" -> a contract that will         allow to split the ETH or ERC20 it received, between several addresses         This contract is upgradeable, because we might have to add functionalities         or versioning over time.         However, the Factory has no authority over a Splitter after it's created         which ensure that updates to the current contract         won't create any problems / exploits on existing Splitter",
    "version": 1
  },
  "storageLayout": {
    "storage": [
      {
        "astId": 210,
        "contract": "contracts/CollabSplitterFactory.sol:CollabSplitterFactory",
        "label": "_initialized",
        "offset": 0,
        "slot": "0",
        "type": "t_bool"
      },
      {
        "astId": 213,
        "contract": "contracts/CollabSplitterFactory.sol:CollabSplitterFactory",
        "label": "_initializing",
        "offset": 1,
        "slot": "0",
        "type": "t_bool"
      },
      {
        "astId": 292,
        "contract": "contracts/CollabSplitterFactory.sol:CollabSplitterFactory",
        "label": "__gap",
        "offset": 0,
        "slot": "1",
        "type": "t_array(t_uint256)50_storage"
      },
      {
        "astId": 10,
        "contract": "contracts/CollabSplitterFactory.sol:CollabSplitterFactory",
        "label": "_owner",
        "offset": 0,
        "slot": "51",
        "type": "t_address"
      },
      {
        "astId": 123,
        "contract": "contracts/CollabSplitterFactory.sol:CollabSplitterFactory",
        "label": "__gap",
        "offset": 0,
        "slot": "52",
        "type": "t_array(t_uint256)49_storage"
      },
      {
        "astId": 2162,
        "contract": "contracts/CollabSplitterFactory.sol:CollabSplitterFactory",
        "label": "_splitterImplementation",
        "offset": 0,
        "slot": "101",
        "type": "t_address"
      },
      {
        "astId": 2166,
        "contract": "contracts/CollabSplitterFactory.sol:CollabSplitterFactory",
        "label": "__gap",
        "offset": 0,
        "slot": "102",
        "type": "t_array(t_uint256)50_storage"
      }
    ],
    "types": {
      "t_address": {
        "encoding": "inplace",
        "label": "address",
        "numberOfBytes": "20"
      },
      "t_array(t_uint256)49_storage": {
        "base": "t_uint256",
        "encoding": "inplace",
        "label": "uint256[49]",
        "numberOfBytes": "1568"
      },
      "t_array(t_uint256)50_storage": {
        "base": "t_uint256",
        "encoding": "inplace",
        "label": "uint256[50]",
        "numberOfBytes": "1600"
      },
      "t_bool": {
        "encoding": "inplace",
        "label": "bool",
        "numberOfBytes": "1"
      },
      "t_uint256": {
        "encoding": "inplace",
        "label": "uint256",
        "numberOfBytes": "32"
      }
    }
  }
}