{
  "address": "0x5b1869D9A4C187F2EAa108f3062412ecf0526b24",
  "abi": [
    {
      "anonymous": false,
      "inputs": [
        {
          "indexed": false,
          "internalType": "address",
          "name": "operator",
          "type": "address"
        },
        {
          "indexed": false,
          "internalType": "address",
          "name": "account",
          "type": "address"
        },
        {
          "indexed": false,
          "internalType": "uint256",
          "name": "amount",
          "type": "uint256"
        },
        {
          "indexed": false,
          "internalType": "address",
          "name": "token",
          "type": "address"
        }
      ],
      "name": "ERC20Claimed",
      "type": "event"
    },
    {
      "anonymous": false,
      "inputs": [
        {
          "indexed": false,
          "internalType": "address",
          "name": "operator",
          "type": "address"
        },
        {
          "indexed": false,
          "internalType": "address",
          "name": "account",
          "type": "address"
        },
        {
          "indexed": false,
          "internalType": "uint256",
          "name": "amount",
          "type": "uint256"
        }
      ],
      "name": "ETHClaimed",
      "type": "event"
    },
    {
      "inputs": [
        {
          "internalType": "address",
          "name": "",
          "type": "address"
        }
      ],
      "name": "alreadyClaimed",
      "outputs": [
        {
          "internalType": "uint256",
          "name": "",
          "type": "uint256"
        }
      ],
      "stateMutability": "view",
      "type": "function"
    },
    {
      "inputs": [
        {
          "internalType": "address",
          "name": "account",
          "type": "address"
        },
        {
          "internalType": "uint256",
          "name": "percent",
          "type": "uint256"
        },
        {
          "internalType": "bytes32[]",
          "name": "merkleProof",
          "type": "bytes32[]"
        },
        {
          "internalType": "address",
          "name": "erc20",
          "type": "address"
        }
      ],
      "name": "claimERC20",
      "outputs": [],
      "stateMutability": "nonpayable",
      "type": "function"
    },
    {
      "inputs": [
        {
          "internalType": "address",
          "name": "account",
          "type": "address"
        },
        {
          "internalType": "uint256",
          "name": "percent",
          "type": "uint256"
        },
        {
          "internalType": "bytes32[]",
          "name": "merkleProof",
          "type": "bytes32[]"
        }
      ],
      "name": "claimETH",
      "outputs": [],
      "stateMutability": "nonpayable",
      "type": "function"
    },
    {
      "inputs": [
        {
          "internalType": "address",
          "name": "",
          "type": "address"
        }
      ],
      "name": "erc20Data",
      "outputs": [
        {
          "internalType": "uint256",
          "name": "totalReceived",
          "type": "uint256"
        },
        {
          "internalType": "uint256",
          "name": "lastBalance",
          "type": "uint256"
        }
      ],
      "stateMutability": "view",
      "type": "function"
    },
    {
      "inputs": [
        {
          "internalType": "address[]",
          "name": "accounts",
          "type": "address[]"
        },
        {
          "internalType": "uint256[]",
          "name": "percents",
          "type": "uint256[]"
        },
        {
          "internalType": "address",
          "name": "token",
          "type": "address"
        }
      ],
      "name": "getBatchClaimableERC20",
      "outputs": [
        {
          "internalType": "uint256[]",
          "name": "",
          "type": "uint256[]"
        }
      ],
      "stateMutability": "view",
      "type": "function"
    },
    {
      "inputs": [
        {
          "internalType": "address[]",
          "name": "accounts",
          "type": "address[]"
        },
        {
          "internalType": "uint256[]",
          "name": "percents",
          "type": "uint256[]"
        }
      ],
      "name": "getBatchClaimableETH",
      "outputs": [
        {
          "internalType": "uint256[]",
          "name": "",
          "type": "uint256[]"
        }
      ],
      "stateMutability": "view",
      "type": "function"
    },
    {
      "inputs": [
        {
          "internalType": "address",
          "name": "account",
          "type": "address"
        },
        {
          "internalType": "uint256",
          "name": "percent",
          "type": "uint256"
        }
      ],
      "name": "getNode",
      "outputs": [
        {
          "internalType": "bytes32",
          "name": "",
          "type": "bytes32"
        }
      ],
      "stateMutability": "pure",
      "type": "function"
    },
    {
      "inputs": [
        {
          "internalType": "bytes32",
          "name": "merkleRoot_",
          "type": "bytes32"
        }
      ],
      "name": "initialize",
      "outputs": [],
      "stateMutability": "nonpayable",
      "type": "function"
    },
    {
      "inputs": [],
      "name": "merkleRoot",
      "outputs": [
        {
          "internalType": "bytes32",
          "name": "",
          "type": "bytes32"
        }
      ],
      "stateMutability": "view",
      "type": "function"
    },
    {
      "inputs": [],
      "name": "totalReceived",
      "outputs": [
        {
          "internalType": "uint256",
          "name": "",
          "type": "uint256"
        }
      ],
      "stateMutability": "view",
      "type": "function"
    },
    {
      "stateMutability": "payable",
      "type": "receive"
    }
  ],
  "transactionHash": "0x3f1dfc692a1814dbb7c9e1e3cfbafd710622b3169dd3a640fde3501cb51f32b2",
  "args": [],
  "solcInputHash": "aa5248424eff8400a14d00e1c1b4aaf5",
  "bytecode": "0x608060405234801561001057600080fd5b506111d1806100206000396000f3fe6080604052600436106100955760003560e01c8063a98ca8ab11610059578063a98ca8ab14610167578063c04a926c14610187578063e4d861e3146101b5578063ec315438146101d5578063f54b893b146101f5576100b3565b80632eb4a7ab146100b857806367e6bd33146100e35780639498bd711461010557806399c1c39114610125578063a3c2c46214610152576100b3565b366100b35734600260008282546100ac91906110e6565b9091555050005b600080fd5b3480156100c457600080fd5b506100cd610215565b6040516100da9190610f87565b60405180910390f35b3480156100ef57600080fd5b506101036100fe366004610cd9565b61021b565b005b34801561011157600080fd5b50610103610120366004610e86565b6103b0565b34801561013157600080fd5b50610145610140366004610d94565b61042b565b6040516100da9190610f43565b34801561015e57600080fd5b506100cd610554565b34801561017357600080fd5b50610103610182366004610d2e565b61055a565b34801561019357600080fd5b506101a76101a2366004610c8f565b61083f565b6040516100da929190610eb6565b3480156101c157600080fd5b506100cd6101d0366004610cb0565b610858565b3480156101e157600080fd5b506101456101f0366004610df5565b61088b565b34801561020157600080fd5b506100cd610210366004610c8f565b610aad565b60015481565b6102318160015461022c8686610858565b610abf565b6102565760405162461bcd60e51b815260040161024d90611070565b60405180910390fd5b6000600254116102785760405162461bcd60e51b815260040161024d90610fde565b6002546001600160a01b03841660009081526003602052604081205490916102a1918590610b7a565b9050600081116102c35760405162461bcd60e51b815260040161024d90611039565b6001600160a01b038416600090815260036020526040812080548392906102eb9084906110e6565b925050819055506000846001600160a01b03168260405161030b90610ec4565b60006040518083038185875af1925050503d8060008114610348576040519150601f19603f3d011682016040523d82523d6000602084013e61034d565b606091505b505090508061036e5760405162461bcd60e51b815260040161024d90611009565b7f81bfb395a613b7b5eeaec6ac330051b8b723aa455649a52ecd5d0784b95c69d23386846040516103a193929190610edb565b60405180910390a15050505050565b600054610100900460ff16806103c9575060005460ff16155b6103e55760405162461bcd60e51b815260040161024d90610f90565b600054610100900460ff16158015610410576000805460ff1961ff0019909116610100171660011790555b60018290558015610427576000805461ff00191690555b5050565b60606000835167ffffffffffffffff81111561045757634e487b7160e01b600052604160045260246000fd5b604051908082528060200260200182016040528015610480578160200160208202803683370190505b50905060005b845181101561054c5761050f6002548583815181106104b557634e487b7160e01b600052603260045260246000fd5b6020026020010151600360008986815181106104e157634e487b7160e01b600052603260045260246000fd5b60200260200101516001600160a01b03166001600160a01b0316815260200190815260200160002054610b7a565b82828151811061052f57634e487b7160e01b600052603260045260246000fd5b60209081029190910101528061054481611154565b915050610486565b509392505050565b60025481565b61056b8260015461022c8787610858565b6105875760405162461bcd60e51b815260040161024d90611070565b6001600160a01b038116600081815260046020819052604080832090516370a0823160e01b81529093916370a08231916105c391309101610ec7565b60206040518083038186803b1580156105db57600080fd5b505afa1580156105ef573d6000803e3d6000fd5b505050506040513d601f19601f820116820180604052508101906106139190610e9e565b90506000826001015482610627919061113d565b90508083600001600082825461063d91906110e6565b909155505082546106605760405162461bcd60e51b815260040161024d90610fde565b82546001600160a01b0380891660009081526005602090815260408083209389168352929052908120549091610697918990610b7a565b9050600081116106b95760405162461bcd60e51b815260040161024d90611039565b6001600160a01b038089166000908152600560209081526040808320938916835292905290812080548392906106f09084906110e6565b909155505060405163a9059cbb60e01b81526001600160a01b0386169063a9059cbb90610723908b908590600401610f2a565b602060405180830381600087803b15801561073d57600080fd5b505af1158015610751573d6000803e3d6000fd5b505050506040513d601f19601f820116820180604052508101906107759190610e66565b506040516370a0823160e01b81526001600160a01b038616906370a08231906107a2903090600401610ec7565b60206040518083038186803b1580156107ba57600080fd5b505afa1580156107ce573d6000803e3d6000fd5b505050506040513d601f19601f820116820180604052508101906107f29190610e9e565b60018501556040517f822b4e6114037904f67e04cff177cc3a751233291f67bc377196c46a5560fceb9061082d9033908b9085908a90610eff565b60405180910390a15050505050505050565b6004602052600090815260409020805460019091015482565b6000828260405160200161086d929190610f2a565b60405160208183030381529060405280519060200120905092915050565b6001600160a01b0381166000818152600460208181526040808420815180830183528154815260019091015492810192909252516370a0823160e01b81526060949193926370a08231916108e191309101610ec7565b60206040518083038186803b1580156108f957600080fd5b505afa15801561090d573d6000803e3d6000fd5b505050506040513d601f19601f820116820180604052508101906109319190610e9e565b90506000826020015182610945919061113d565b9050808360000181815161095991906110e6565b905250865160009067ffffffffffffffff81111561098757634e487b7160e01b600052604160045260246000fd5b6040519080825280602002602001820160405280156109b0578160200160208202803683370190505b50905060005b8851811015610aa157610a6485600001518983815181106109e757634e487b7160e01b600052603260045260246000fd5b6020026020010151600560008d8681518110610a1357634e487b7160e01b600052603260045260246000fd5b60200260200101516001600160a01b03166001600160a01b0316815260200190815260200160002060008b6001600160a01b03166001600160a01b0316815260200190815260200160002054610b7a565b828281518110610a8457634e487b7160e01b600052603260045260246000fd5b602090810291909101015280610a9981611154565b9150506109b6565b50979650505050505050565b60036020526000908152604090205481565b600081815b8551811015610b6f576000868281518110610aef57634e487b7160e01b600052603260045260246000fd5b60200260200101519050808311610b30578281604051602001610b13929190610eb6565b604051602081830303815290604052805190602001209250610b5c565b8083604051602001610b43929190610eb6565b6040516020818303038152906040528051906020012092505b5080610b6781611154565b915050610ac4565b509092149392505050565b600081612710610b8a858761111e565b610b9491906110fe565b610b9e919061113d565b949350505050565b80356001600160a01b0381168114610bbd57600080fd5b919050565b600082601f830112610bd2578081fd5b81356020610be7610be2836110c2565b611098565b8281528181019085830183850287018401881015610c03578586fd5b855b85811015610c2857610c1682610ba6565b84529284019290840190600101610c05565b5090979650505050505050565b600082601f830112610c45578081fd5b81356020610c55610be2836110c2565b8281528181019085830183850287018401881015610c71578586fd5b855b85811015610c2857813584529284019290840190600101610c73565b600060208284031215610ca0578081fd5b610ca982610ba6565b9392505050565b60008060408385031215610cc2578081fd5b610ccb83610ba6565b946020939093013593505050565b600080600060608486031215610ced578081fd5b610cf684610ba6565b925060208401359150604084013567ffffffffffffffff811115610d18578182fd5b610d2486828701610c35565b9150509250925092565b60008060008060808587031215610d43578081fd5b610d4c85610ba6565b935060208501359250604085013567ffffffffffffffff811115610d6e578182fd5b610d7a87828801610c35565b925050610d8960608601610ba6565b905092959194509250565b60008060408385031215610da6578182fd5b823567ffffffffffffffff80821115610dbd578384fd5b610dc986838701610bc2565b93506020850135915080821115610dde578283fd5b50610deb85828601610c35565b9150509250929050565b600080600060608486031215610e09578283fd5b833567ffffffffffffffff80821115610e20578485fd5b610e2c87838801610bc2565b94506020860135915080821115610e41578384fd5b50610e4e86828701610c35565b925050610e5d60408501610ba6565b90509250925092565b600060208284031215610e77578081fd5b81518015158114610ca9578182fd5b600060208284031215610e97578081fd5b5035919050565b600060208284031215610eaf578081fd5b5051919050565b918252602082015260400190565b90565b6001600160a01b0391909116815260200190565b6001600160a01b039384168152919092166020820152604081019190915260600190565b6001600160a01b03948516815292841660208401526040830191909152909116606082015260800190565b6001600160a01b03929092168252602082015260400190565b6020808252825182820181905260009190848201906040850190845b81811015610f7b57835183529284019291840191600101610f5f565b50909695505050505050565b90815260200190565b6020808252602e908201527f496e697469616c697a61626c653a20636f6e747261637420697320616c72656160408201526d191e481a5b9a5d1a585b1a5e995960921b606082015260800190565b6020808252601190820152702737ba3434b733903a379031b630b4b69760791b604082015260600190565b60208082526016908201527508ae4e4dee440eed0cadc40e6cadcc8d2dcce408aa8960531b604082015260600190565b6020808252601a908201527f416c726561647920636c61696d65642065766572797468696e67000000000000604082015260600190565b6020808252600e908201526d24b73b30b634b210383937b7b31760911b604082015260600190565b60405181810167ffffffffffffffff811182821017156110ba576110ba611185565b604052919050565b600067ffffffffffffffff8211156110dc576110dc611185565b5060209081020190565b600082198211156110f9576110f961116f565b500190565b60008261111957634e487b7160e01b81526012600452602481fd5b500490565b60008160001904831182151516156111385761113861116f565b500290565b60008282101561114f5761114f61116f565b500390565b60006000198214156111685761116861116f565b5060010190565b634e487b7160e01b600052601160045260246000fd5b634e487b7160e01b600052604160045260246000fdfea264697066735822122004423ebb88e9d2e7e21c947e37773f2cefc18628cc99233e1a50c68c003c06a064736f6c63430008000033",
  "devdoc": {
    "author": "Simon Fremaux (@dievardump)",
    "kind": "dev",
    "methods": {
      "claimERC20(address,uint256,bytes32[],address)": {
        "details": "To be able to do so, every time a claim is asked, we will compare both current and last known      balance for this contract, allowing to keep up to date on how much it has ever received      then we can calculate the full amount due to the account, and substract the amount already claimed",
        "params": {
          "account": "the account we want to claim for",
          "erc20": "the ERC20 to claim from",
          "merkleProof": "the merkle proof used to ensure this claim is legit",
          "percent": "the allocation for this account | 2 decimal basis, meaning 1% = 100, 2.5% = 250 etc..."
        }
      },
      "claimETH(address,uint256,bytes32[])": {
        "params": {
          "account": "the account we want to claim for",
          "merkleProof": "the merkle proof used to ensure this claim is legit",
          "percent": "the allocation for this account | 2 decimal basis, meaning 1 = 100, 2.5 = 250 etc..."
        }
      },
      "getBatchClaimableERC20(address[],uint256[],address)": {
        "params": {
          "accounts": "the account to check for",
          "percents": "the allocation for this account",
          "token": "the token (ERC20 contract) to check on"
        }
      },
      "getBatchClaimableETH(address[],uint256[])": {
        "params": {
          "accounts": "the account to check for",
          "percents": "the allocation for this account"
        }
      }
    },
    "title": "CollabSplitterFactory",
    "version": 1
  },
  "userdoc": {
    "kind": "user",
    "methods": {
      "claimERC20(address,uint256,bytes32[],address)": {
        "notice": "Allows to claim an ERC20 for an account"
      },
      "claimETH(address,uint256,bytes32[])": {
        "notice": "Allows to claim the ETH for an account"
      },
      "getBatchClaimableERC20(address[],uint256[],address)": {
        "notice": "Helper allowing to know how much of an ERC20 is still claimable for a list of accounts"
      },
      "getBatchClaimableETH(address[],uint256[])": {
        "notice": "Helper allowing to know how much ETH is still claimable for a list of accounts"
      }
    },
    "version": 1
  },
  "storageLayout": {
    "storage": [
      {
        "astId": 210,
        "contract": "contracts/CollabSplitter.sol:CollabSplitter",
        "label": "_initialized",
        "offset": 0,
        "slot": "0",
        "type": "t_bool"
      },
      {
        "astId": 213,
        "contract": "contracts/CollabSplitter.sol:CollabSplitter",
        "label": "_initializing",
        "offset": 1,
        "slot": "0",
        "type": "t_bool"
      },
      {
        "astId": 1576,
        "contract": "contracts/CollabSplitter.sol:CollabSplitter",
        "label": "merkleRoot",
        "offset": 0,
        "slot": "1",
        "type": "t_bytes32"
      },
      {
        "astId": 1578,
        "contract": "contracts/CollabSplitter.sol:CollabSplitter",
        "label": "totalReceived",
        "offset": 0,
        "slot": "2",
        "type": "t_uint256"
      },
      {
        "astId": 1582,
        "contract": "contracts/CollabSplitter.sol:CollabSplitter",
        "label": "alreadyClaimed",
        "offset": 0,
        "slot": "3",
        "type": "t_mapping(t_address,t_uint256)"
      },
      {
        "astId": 1587,
        "contract": "contracts/CollabSplitter.sol:CollabSplitter",
        "label": "erc20Data",
        "offset": 0,
        "slot": "4",
        "type": "t_mapping(t_address,t_struct(ERC20Data)1574_storage)"
      },
      {
        "astId": 1593,
        "contract": "contracts/CollabSplitter.sol:CollabSplitter",
        "label": "erc20AlreadyClaimed",
        "offset": 0,
        "slot": "5",
        "type": "t_mapping(t_address,t_mapping(t_address,t_uint256))"
      }
    ],
    "types": {
      "t_address": {
        "encoding": "inplace",
        "label": "address",
        "numberOfBytes": "20"
      },
      "t_bool": {
        "encoding": "inplace",
        "label": "bool",
        "numberOfBytes": "1"
      },
      "t_bytes32": {
        "encoding": "inplace",
        "label": "bytes32",
        "numberOfBytes": "32"
      },
      "t_mapping(t_address,t_mapping(t_address,t_uint256))": {
        "encoding": "mapping",
        "key": "t_address",
        "label": "mapping(address => mapping(address => uint256))",
        "numberOfBytes": "32",
        "value": "t_mapping(t_address,t_uint256)"
      },
      "t_mapping(t_address,t_struct(ERC20Data)1574_storage)": {
        "encoding": "mapping",
        "key": "t_address",
        "label": "mapping(address => struct CollabSplitter.ERC20Data)",
        "numberOfBytes": "32",
        "value": "t_struct(ERC20Data)1574_storage"
      },
      "t_mapping(t_address,t_uint256)": {
        "encoding": "mapping",
        "key": "t_address",
        "label": "mapping(address => uint256)",
        "numberOfBytes": "32",
        "value": "t_uint256"
      },
      "t_struct(ERC20Data)1574_storage": {
        "encoding": "inplace",
        "label": "struct CollabSplitter.ERC20Data",
        "members": [
          {
            "astId": 1571,
            "contract": "contracts/CollabSplitter.sol:CollabSplitter",
            "label": "totalReceived",
            "offset": 0,
            "slot": "0",
            "type": "t_uint256"
          },
          {
            "astId": 1573,
            "contract": "contracts/CollabSplitter.sol:CollabSplitter",
            "label": "lastBalance",
            "offset": 0,
            "slot": "1",
            "type": "t_uint256"
          }
        ],
        "numberOfBytes": "64"
      },
      "t_uint256": {
        "encoding": "inplace",
        "label": "uint256",
        "numberOfBytes": "32"
      }
    }
  }
}