{
  "address": "0x562B91BC9471EbBA61E07C4049618C7Bc69E60c9",
  "abi": [
    {
      "inputs": [],
      "stateMutability": "nonpayable",
      "type": "constructor"
    },
    {
      "anonymous": false,
      "inputs": [
        {
          "indexed": true,
          "internalType": "address",
          "name": "previousOwner",
          "type": "address"
        },
        {
          "indexed": true,
          "internalType": "address",
          "name": "newOwner",
          "type": "address"
        }
      ],
      "name": "OwnershipTransferred",
      "type": "event"
    },
    {
      "anonymous": false,
      "inputs": [
        {
          "indexed": true,
          "internalType": "address",
          "name": "splitter",
          "type": "address"
        },
        {
          "indexed": false,
          "internalType": "string",
          "name": "name",
          "type": "string"
        },
        {
          "indexed": false,
          "internalType": "address[]",
          "name": "recipients",
          "type": "address[]"
        },
        {
          "indexed": false,
          "internalType": "uint256[]",
          "name": "amounts",
          "type": "uint256[]"
        }
      ],
      "name": "SplitterCreated",
      "type": "event"
    },
    {
      "inputs": [
        {
          "internalType": "string",
          "name": "name_",
          "type": "string"
        },
        {
          "internalType": "bytes32",
          "name": "merkleRoot",
          "type": "bytes32"
        },
        {
          "internalType": "address[]",
          "name": "recipients",
          "type": "address[]"
        },
        {
          "internalType": "uint256[]",
          "name": "amounts",
          "type": "uint256[]"
        }
      ],
      "name": "createSplitter",
      "outputs": [
        {
          "internalType": "address",
          "name": "newContract",
          "type": "address"
        }
      ],
      "stateMutability": "payable",
      "type": "function"
    },
    {
      "inputs": [],
      "name": "getSplitterImplementation",
      "outputs": [
        {
          "internalType": "address",
          "name": "",
          "type": "address"
        }
      ],
      "stateMutability": "view",
      "type": "function"
    },
    {
      "inputs": [
        {
          "internalType": "address",
          "name": "splitterImplementation",
          "type": "address"
        },
        {
          "internalType": "address",
          "name": "owner_",
          "type": "address"
        }
      ],
      "name": "initialize",
      "outputs": [],
      "stateMutability": "nonpayable",
      "type": "function"
    },
    {
      "inputs": [],
      "name": "owner",
      "outputs": [
        {
          "internalType": "address",
          "name": "",
          "type": "address"
        }
      ],
      "stateMutability": "view",
      "type": "function"
    },
    {
      "inputs": [],
      "name": "renounceOwnership",
      "outputs": [],
      "stateMutability": "nonpayable",
      "type": "function"
    },
    {
      "inputs": [
        {
          "internalType": "address",
          "name": "implementation",
          "type": "address"
        }
      ],
      "name": "setSplitterImplementation",
      "outputs": [],
      "stateMutability": "nonpayable",
      "type": "function"
    },
    {
      "inputs": [
        {
          "internalType": "address",
          "name": "newOwner",
          "type": "address"
        }
      ],
      "name": "transferOwnership",
      "outputs": [],
      "stateMutability": "nonpayable",
      "type": "function"
    }
  ],
  "transactionHash": "0x194a1128e700b46f9ed9f77ffb71e14a3b1ea521ecb1048d48185da451e64f6c",
  "args": [],
  "solcInputHash": "60f67688df512955030de0b2c492b991",
  "bytecode": "0x608060405234801561001057600080fd5b50610ad0806100206000396000f3fe6080604052600436106100705760003560e01c80638da5cb5b1161004e5780638da5cb5b146100db578063d76061c8146100f9578063dae2990614610119578063f2fde38b1461013757600080fd5b80632a8eee7714610075578063485cc955146100a4578063715018a6146100c6575b600080fd5b6100886100833660046107d6565b610157565b6040516001600160a01b03909116815260200160405180910390f35b3480156100b057600080fd5b506100c46100bf3660046108bc565b61039c565b005b3480156100d257600080fd5b506100c4610472565b3480156100e757600080fd5b506033546001600160a01b0316610088565b34801561010557600080fd5b506100c46101143660046108ef565b6104a8565b34801561012557600080fd5b506065546001600160a01b0316610088565b34801561014357600080fd5b506100c46101523660046108ef565b6104de565b6065546000906001600160a01b03166101ad5760405162461bcd60e51b8152602060048201526013602482015272214e4f5f494d504c454d454e544154494f4e2160681b60448201526064015b60405180910390fd5b81518351146101f25760405162461bcd60e51b8152602060048201526011602482015270214c454e4754485f4d49534d415443482160781b60448201526064016101a4565b6000805b83518110156102945783818151811061021157610211610911565b60200260200101516000141561025b5760405162461bcd60e51b815260206004820152600f60248201526e214e4f5f4e554c4c5f56414c55452160881b60448201526064016101a4565b83818151811061026d5761026d610911565b602002602001015182610280919061093d565b91508061028c81610955565b9150506101f6565b5080612710146102dc5760405162461bcd60e51b81526020600482015260136024820152722156414c55455f4d5553545f42455f3130302160681b60448201526064016101a4565b6065546102f1906001600160a01b0316610576565b604051639498bd7160e01b8152600481018790529092506001600160a01b03831690639498bd7190602401600060405180830381600087803b15801561033657600080fd5b505af115801561034a573d6000803e3d6000fd5b50505050816001600160a01b03167f1abfe31ad300b4944aba025be8e3da75652af4e833a11c0d86d6634a2b33c47587868660405161038b939291906109e4565b60405180910390a250949350505050565b600054610100900460ff16806103b5575060005460ff16155b6104185760405162461bcd60e51b815260206004820152602e60248201527f496e697469616c697a61626c653a20636f6e747261637420697320616c72656160448201526d191e481a5b9a5d1a585b1a5e995960921b60648201526084016101a4565b600054610100900460ff1615801561043a576000805461ffff19166101011790555b61044383610613565b6001600160a01b0382161561045b5761045b826104de565b801561046d576000805461ff00191690555b505050565b6033546001600160a01b0316331461049c5760405162461bcd60e51b81526004016101a490610a65565b6104a66000610635565b565b6033546001600160a01b031633146104d25760405162461bcd60e51b81526004016101a490610a65565b6104db81610613565b50565b6033546001600160a01b031633146105085760405162461bcd60e51b81526004016101a490610a65565b6001600160a01b03811661056d5760405162461bcd60e51b815260206004820152602660248201527f4f776e61626c653a206e6577206f776e657220697320746865207a65726f206160448201526564647265737360d01b60648201526084016101a4565b6104db81610635565b6000604051733d602d80600a3d3981f3363d3d373d3d3d363d7360601b81528260601b60148201526e5af43d82803e903d91602b57fd5bf360881b60288201526037816000f09150506001600160a01b03811661060e5760405162461bcd60e51b8152602060048201526016602482015275115490cc4c4d8dce8818dc99585d194819985a5b195960521b60448201526064016101a4565b919050565b606580546001600160a01b0319166001600160a01b0392909216919091179055565b603380546001600160a01b038381166001600160a01b0319831681179093556040519116919082907f8be0079c531659141344cd1fd0a4f28419497f9722a3daafe3b4186f6b6457e090600090a35050565b634e487b7160e01b600052604160045260246000fd5b604051601f8201601f1916810167ffffffffffffffff811182821017156106c6576106c6610687565b604052919050565b600067ffffffffffffffff8211156106e8576106e8610687565b5060051b60200190565b80356001600160a01b038116811461060e57600080fd5b600082601f83011261071a57600080fd5b8135602061072f61072a836106ce565b61069d565b82815260059290921b8401810191818101908684111561074e57600080fd5b8286015b8481101561077057610763816106f2565b8352918301918301610752565b509695505050505050565b600082601f83011261078c57600080fd5b8135602061079c61072a836106ce565b82815260059290921b840181019181810190868411156107bb57600080fd5b8286015b8481101561077057803583529183019183016107bf565b600080600080608085870312156107ec57600080fd5b843567ffffffffffffffff8082111561080457600080fd5b818701915087601f83011261081857600080fd5b813560208282111561082c5761082c610687565b61083e601f8301601f1916820161069d565b8281528a8284870101111561085257600080fd5b828286018383013760009281018201929092529096508701359450604087013591508082111561088157600080fd5b61088d88838901610709565b935060608701359150808211156108a357600080fd5b506108b08782880161077b565b91505092959194509250565b600080604083850312156108cf57600080fd5b6108d8836106f2565b91506108e6602084016106f2565b90509250929050565b60006020828403121561090157600080fd5b61090a826106f2565b9392505050565b634e487b7160e01b600052603260045260246000fd5b634e487b7160e01b600052601160045260246000fd5b6000821982111561095057610950610927565b500190565b600060001982141561096957610969610927565b5060010190565b600081518084526020808501945080840160005b838110156109a95781516001600160a01b031687529582019590820190600101610984565b509495945050505050565b600081518084526020808501945080840160005b838110156109a9578151875295820195908201906001016109c8565b606081526000845180606084015260005b81811015610a1257602081880181015160808684010152016109f5565b81811115610a24576000608083860101525b50601f01601f1916820182810360809081016020850152610a4790820186610970565b90508281036040840152610a5b81856109b4565b9695505050505050565b6020808252818101527f4f776e61626c653a2063616c6c6572206973206e6f7420746865206f776e657260408201526060019056fea264697066735822122016a23c28b71b89fb1f07c6cbf1b96c8908a25925199d94b2f006e0fc865ee39e64736f6c63430008090033",
  "devdoc": {
    "author": "Simon Fremaux (@dievardump)",
    "kind": "dev",
    "methods": {
      "createSplitter(string,bytes32,address[],uint256[])": {
        "details": "the contract created is a minimal proxy to the _splitterImplementation      the list of recipients (and the corresponding amounts) should then be used in the exact same order      to create the merkleProof and merkleRoot",
        "params": {
          "amounts": "list of amounts",
          "merkleRoot": "merkle root of the tree of recipients",
          "name_": "name of the Splitter (for convenience)",
          "recipients": "list of recipients"
        },
        "returns": {
          "newContract": "the address of the new contract"
        }
      },
      "owner()": {
        "details": "Returns the address of the current owner."
      },
      "renounceOwnership()": {
        "details": "Leaves the contract without owner. It will not be possible to call `onlyOwner` functions anymore. Can only be called by the current owner. NOTE: Renouncing ownership will leave the contract without an owner, thereby removing any functionality that is only available to the owner."
      },
      "setSplitterImplementation(address)": {
        "params": {
          "implementation": "the address to proxy calls to"
        }
      },
      "transferOwnership(address)": {
        "details": "Transfers ownership of the contract to a new account (`newOwner`). Can only be called by the current owner."
      }
    },
    "title": "CollabSplitterFactory",
    "version": 1
  },
  "userdoc": {
    "kind": "user",
    "methods": {
      "createSplitter(string,bytes32,address[],uint256[])": {
        "notice": "Creates a new CollabSplitter contract"
      },
      "getSplitterImplementation()": {
        "notice": "Getter for the Splitter Implementation"
      },
      "setSplitterImplementation(address)": {
        "notice": "Setter for the Splitter Implementation"
      }
    },
    "notice": "This contract allows people to create a \"Splitter\" -> a contract that will         allow to split the ETH or ERC20 it received, between several addresses         This contract is upgradeable, because we might have to add functionalities         or versioning over time.         However, the Factory has no authority over a Splitter after it's created         which ensure that updates to the current contract         won't create any problems / exploits on existing Splitter",
    "version": 1
  },
  "storageLayout": {
    "storage": [
      {
        "astId": 210,
        "contract": "contracts/CollabSplitterFactory.sol:CollabSplitterFactory",
        "label": "_initialized",
        "offset": 0,
        "slot": "0",
        "type": "t_bool"
      },
      {
        "astId": 213,
        "contract": "contracts/CollabSplitterFactory.sol:CollabSplitterFactory",
        "label": "_initializing",
        "offset": 1,
        "slot": "0",
        "type": "t_bool"
      },
      {
        "astId": 292,
        "contract": "contracts/CollabSplitterFactory.sol:CollabSplitterFactory",
        "label": "__gap",
        "offset": 0,
        "slot": "1",
        "type": "t_array(t_uint256)50_storage"
      },
      {
        "astId": 10,
        "contract": "contracts/CollabSplitterFactory.sol:CollabSplitterFactory",
        "label": "_owner",
        "offset": 0,
        "slot": "51",
        "type": "t_address"
      },
      {
        "astId": 123,
        "contract": "contracts/CollabSplitterFactory.sol:CollabSplitterFactory",
        "label": "__gap",
        "offset": 0,
        "slot": "52",
        "type": "t_array(t_uint256)49_storage"
      },
      {
        "astId": 2364,
        "contract": "contracts/CollabSplitterFactory.sol:CollabSplitterFactory",
        "label": "_splitterImplementation",
        "offset": 0,
        "slot": "101",
        "type": "t_address"
      },
      {
        "astId": 2368,
        "contract": "contracts/CollabSplitterFactory.sol:CollabSplitterFactory",
        "label": "__gap",
        "offset": 0,
        "slot": "102",
        "type": "t_array(t_uint256)50_storage"
      }
    ],
    "types": {
      "t_address": {
        "encoding": "inplace",
        "label": "address",
        "numberOfBytes": "20"
      },
      "t_array(t_uint256)49_storage": {
        "base": "t_uint256",
        "encoding": "inplace",
        "label": "uint256[49]",
        "numberOfBytes": "1568"
      },
      "t_array(t_uint256)50_storage": {
        "base": "t_uint256",
        "encoding": "inplace",
        "label": "uint256[50]",
        "numberOfBytes": "1600"
      },
      "t_bool": {
        "encoding": "inplace",
        "label": "bool",
        "numberOfBytes": "1"
      },
      "t_uint256": {
        "encoding": "inplace",
        "label": "uint256",
        "numberOfBytes": "32"
      }
    }
  }
}